:020000040800F2
:1000000050040020C1010008BF0E00080B0E0008BC
:10001000BD0E0008CD020008F71000080000000027
:10002000000000000000000000000000E30E0008D7
:10003000CF02000800000000E10E0008E50E0008F5
:10004000DB010008DB010008DB010008DB01000820
:10005000DB010008DB010008DB010008DB01000810
:10006000DB010008DB010008DB010008DB01000800
:10007000DB010008DB010008DB010008DB010008F0
:10008000DB010008DB010008DB010008DB010008E0
:10009000DB010008DB010008DB010008DB010008D0
:1000A000DB010008DB010008DB010008DB010008C0
:1000B000C10F0008DB010008DB010008DB010008BC
:1000C000DB010008DB010008DB010008DB010008A0
:1000D000DB010008DB010008DB010008DB01000890
:1000E000DB010008DB010008DB010008DB01000880
:1000F000DB010008DB010008DB010008DB01000870
:10010000DB010008DB010008DB010008DB0100085F
:10011000DB010008DB010008DB010008DB0100084F
:10012000DB010008DB010008DB010008DB0100083F
:10013000DB010008DB010008DB010008DB0100082F
:10014000DB010008DB010008DB010008DB0100081F
:10015000DB010008DB010008DB010008DB0100080F
:10016000DB010008DB010008DB010008DB010008FF
:10017000DB010008DB010008DB01000800000000D3
:10018000DB010008DB010008DB010008DB010008DF
:10019000DB010008DB010008DB010008DB010008CF
:1001A000DB010008DB010008DB010008DFF80CD0F0
:1001B00000F07AF8004800471911000850040020A8
:1001C0000648804706480047FEE7FEE7FEE7FEE7F1
:1001D000FEE7FEE7FEE7FEE7FEE7FEE76D0F00083D
:1001E000AD0100082DE9F05F0546002092469B46D0
:1001F00088460646814640241BE02846414647463D
:10020000224600F041F853465A46C01A914110D395
:1002100011461846224600F028F82D1A67EB01080F
:100220004F4622460120002100F01FF817EB00097D
:100230004E41201EA4F10104DFDC484631462A4627
:100240004346BDE8F09FD2B201E000F8012B491E01
:10025000FBD270470022F6E710B513460A46044663
:100260001946FFF7F0FF204610BD202A04DB203A94
:1002700000FA02F1002070479140C2F1200320FAF9
:1002800003F3194390407047202A04DB203A21FAF7
:1002900002F00021704721FA02F3D040C2F120029F
:1002A0009140084319467047064C074D06E0E06848
:1002B00040F0010394E8070098471034AC42F6D3AD
:1002C000FFF778FF5411000874110008FEE770472B
:1002D0002DE9F84FDFF890B100224FF001084FF000
:1002E000030A4FF00F090BF1040E00BF0B6808FA68
:1002F00002F42340A3426ED14D68022D01D0122D8D
:100300000ED1D50800EB850CDCF820505607F70E0F
:1003100009FA07F6B5430E69BE402E43CCF82060BB
:10032000066855000F790AFA05FC07F0030726EA6C
:100330000C06AF40374307604E68012E05D0022EF1
:1003400003D0112E01D0122E0ED18768CE6827EA75
:100350000C07AE403E4386604668A6430C79C4F362
:100360000014944034434460C4688E6824EA0C044A
:10037000AE402643C6604C68E4006FD53B4C256810
:1003800045F480452560246822F0030504F4804488
:100390000094374C2E19D6F8084895072F0F09FA04
:1003A00007F5AC43334DA84201D100252EE0324D74
:1003B000A84201D1012529E0304DA84201D10225F2
:1003C00024E02F4DA84201D103251FE02D4DA84266
:1003D00002D104251AE041E02B4DA84201D10525A8
:1003E00014E02A4DA84201D106250FE0284DA8426D
:1003F00001D107250AE0274DA84201D1082505E0D3
:10040000254DA84201D1092500E00A25BD4025431C
:10041000C6F80858DBF800405D464E689C43F6037A
:1004200000D51C432C60DEF8004075464E689C43A6
:10043000B60300D51C432C600B4D08352C684E6864
:100440009C43F60200D51C432C60074D0C352C68EC
:100450004E689C43B60200D51C432C60521C102AE7
:10046000FFF444AFBDE8F88F003C0140443802403F
:100470000030014000000240000402400008024039
:10048000000C02400010024000140240001802401C
:10049000001C0240002002400024024042694A4001
:1004A000426170470AB1816170470904FBE70000AF
:1004B0000148806870470000000000200248816801
:1004C0000278114481607047000000200B4810B58D
:1004D000016841F400710160016841F480610160CC
:1004E000016841F480710160032000F06DF8002084
:1004F00000F006F800F024F8002010BD003C024097
:1005000070B50D4D04464FF47A712878B1FBF0F0C8
:100510000A490968B1FBF0F000F0BEFA48B9102CA6
:1005200007D200222146501E00F02EF800206C60F9
:1005300070BD012070BD0000000000200C000020F4
:100540000A4808B5016841F480410160006800F480
:10055000804000900548001F016841F08051016013
:10056000006800F08050009008BD00004438024050
:1005700000F01F02012191404009800000F1E020BD
:10058000C0F8001170470000F0B40E4B1B680C4619
:10059000C3F30223C3F10705042D00D90425191D57
:1005A000072901D2002300E0DB1E012606FA05F12F
:1005B000491E214099409E40761E16403143F0BCB2
:1005C00000F07EBC0CED00E0064900F00702086870
:1005D0004FF6FF03184040EA0220034A1043086028
:1005E000704700000CED00E00000FA052DE9F0472F
:1005F0000E46050065D0DFF81481D8F80000F7B288
:1006000000F00F00B04207D288F80070D8F8000060
:1006100000F00F00B04254D128683D4C810712D53C
:10062000400703D5206840F4E05020602878000798
:1006300003D5206840F4604020602068A96820F05D
:10064000F000084320602878C0072DD03049686842
:100650000839012812D0022813D0032811D00968C4
:10066000890700292DDA216821F003010143216067
:10067000FFF71EFF814641F2883A0EE009688903C0
:10068000EFE709688901ECE7FFF712FFA0EB09012A
:10069000514502D90320BDE8F0872068696800F061
:1006A0000C00B0EB810FEFD1D8F80010404601F0FC
:1006B0000F01B14207D90770006800F00F00B04287
:1006C00001D00120E7E72878400705D52068E968D0
:1006D00020F4E050084320602878000706D5206801
:1006E000296920F4604040EAC100206000F016F85B
:1006F0002168084AC1F30311515CC84006490860EB
:100700000020FFF7FDFE0020C5E70000003C02408E
:1007100008380240441100080C000020154810B5AC
:10072000006810F00C02144813D04110042A0FD0B6
:10073000082A0ED10F4C241F2268236802F03F02C2
:100740005B0207D52068C0F38810A0FB010106E01A
:10075000084610BD2168C1F38811A1FB00010023E8
:10076000FFF740FD2168C1F30141491C4900B0FB7E
:10077000F1F010BD083802400024F4002DE9F84FD4
:10078000050076D02878DFF8F8B2BE4CC00749D013
:10079000DBF800105846C1F38101012908D0006838
:1007A000C0F3810002280AD1201D0068400206D54E
:1007B0002068800336D568680028E2D032E0686897
:1007C000B0F5803F10D0B0F5A02F206810D020F4F5
:1007D00080302060206820F4802020606868A0B10C
:1007E000FFF766FE06460CE0206840F48030F4E730
:1007F00040F480202060F7E7FFF75AFE801B642852
:1008000073D820688003F7D50CE0FFF751FE064649
:1008100005E000BFFFF74CFE801B6428F0D820687D
:100820008003F7D42878DFF8608280074FF0000952
:100830003ED5DBF80010584611F00C0F09D00068C7
:10084000C0F3810002280BD18D48001F00684002D0
:1008500006D42068800715D5E868012809D111E081
:10086000E868B8B10120C8F80000FFF721FE06468D
:1008700005E002E1FFF71CFE801B0228C0D82068BB
:100880008007F7D52068296920F0F80040EAC10008
:1008900020600DE0C8F80090FFF70AFE064604E06D
:1008A000FFF706FE801B02281FD820688007F7D4B8
:1008B0002878000722D5724E744869696C3671B188
:1008C00001210160FFF7F4FD074604E0FFF7F0FDAA
:1008D000C01B022809D830688007F7D50EE0C0F8A1
:1008E0000090FFF7E5FD074605E083E0FFF7E0FD38
:1008F000C01B02287ED830688007F7D428784007CC
:1009000068D5DFF87CA100270AF1380ADAF8000080
:10091000C0000BD4DAF8001041F08051CAF8001082
:10092000DAF80000012700F080500090584E30683F
:10093000C00510D4306840F480703060FFF7B8FD17
:10094000009005E0FFF7B4FD0099401A022851D845
:100950003068C005F6D54A4EA868683601280FD021
:100960000528306810D020F001003060306820F099
:1009700004003060A868B8B1FFF79AFD00900FE05E
:10098000306840F00100F4E740F004003060F7E721
:10099000FFF78EFD0099411A41F28830814264D8F8
:1009A00030688007F4D50EE0FFF782FD009007E085
:1009B000FFF77EFD0099411A41F28830814254D8F8
:1009C00030688007F4D42FB1DAF8001021F080519C
:1009D000CAF80010A869C0B3DBF80010C1F38101A8
:1009E00002294AD00228484607D0C8F86000FFF71D
:1009F0005FFD00E039E005463AE04746C8F8600090
:100A0000FFF756FD064604E0FFF752FD801B022863
:100A10002BD820688001F7D4D5E907010843A96ADB
:100A20001C4A490802EB01416A6A41EA8211084303
:100A300095F82C1040EA01611148001F0160012067
:100A40003866FFF735FD054605E014E0FFF730FD99
:100A5000401B022809D820688001F7D50BE000BFB1
:100A6000FFF726FD401B022802D90320BDE8F88FBE
:100A700020688001F4D40020F8E70120F6E70000A8
:100A8000083802400038024000004742800E4742CA
:100A9000007000400000FFFF10B5401EB0F1807FE5
:100AA00001D3012010BD4FF0E02460610F216017D9
:100AB00000F006FA0020A06107202061002010BD90
:100AC0007047704730B590F83820012A20D00122B5
:100AD00080F83820022380F8393003685C6824F0FD
:100AE00070045C6003685C680D682C435C6003689C
:100AF0009C6824F080049C6003689C6849680C43EF
:100B00009C6080F83920002180F83810084630BDFC
:100B1000022030BD10B5040003D094F8390010B1A4
:100B200007E0012010BD002084F83800204600F0C6
:100B30000DF8022084F83900211D206800F046FAE3
:100B4000012084F83900002010BD000008B50068BD
:100B5000B0F1804F08D10548016841F00101016002
:100B6000006800F00100009008BD0000403802401D
:100B70000168CA6842F00102CA600068016841F079
:100B8000010101600020704770B5044690F83800FC
:100B9000012817D0012584F83850022084F8390044
:100BA0002068826822F0770222F47F42826008681F
:100BB000502837D00DDC202859D005DC88B3102808
:100BC00041D151E0022070BD302853D040283AD1A5
:100BD0003FE060282ED070280BD0B0F5805F03D0A6
:100BE000B0F5005F2FD110E02068816821F0070187
:100BF00015E0CB68D1E90121206800F047FA2168AF
:100C0000886840F0770088601DE0CB68D1E9012159
:100C1000206800F03BFA2068816841F480418160DF
:100C200011E01EE0CA684968206800F041FA5021CE
:100C3000206806E0CA684968206800F04AFA602126
:100C4000206800F02DFA84F83950002084F838002C
:100C500070BDCA684968206800F02AFA40212068FF
:100C6000EFE700212068ECE710212068E9E7202168
:100C70002068E6E730212068E3E7704770B5044656
:100C8000006801694FF00005C943890715D4C168A0
:100C9000C943890711D4E91E01610120207620682B
:100CA00080698007204602D0FFF7E7FF04E000F0EC
:100CB00098F8204600F096F8257620680169C94327
:100CC000490717D4C168C943490713D46FF0040119
:100CD0000161022020762068806910F4407F204660
:100CE00002D0FFF7CAFF04E000F07BF8204600F0D6
:100CF00079F8257620680169C943090716D4C168C7
:100D0000C943090712D46FF008010161042020765D
:100D10002068C0698007204602D0FFF7AEFF04E0DC
:100D200000F05FF8204600F05DF825762068016944
:100D3000C943C90617D4C168C943C90613D46FF0A3
:100D400010010161082020762068C06910F4407FFE
:100D5000204602D0FFF791FF04E000F042F8204661
:100D600000F040F8257620680169C943C90708D119
:100D7000C168C943C90704D1891E0161204600F03A
:100D800033F820680169C943090609D4C168C94319
:100D9000090605D46FF0800101612046FFF790FE3F
:100DA00020680169C943490609D4C168C943490695
:100DB00005D46FF040010161204600F025F820685D
:100DC0000169C94389060BD4C168C943890607D4A0
:100DD0006FF0200101612046BDE87040FFF771BE51
:100DE00070BD704770470000054900680968884277
:100DF00004D14FF400510348FFF750BB7047000087
:100E000010000020001802407047FEE770B586B061
:100E100014216846FFF71EFA12480024016841F0C9
:100E200080010160016801F080010591016841F0D5
:100E30004001016000680C4E00F040004FF4005586
:100E40000590224629463046FFF72CFB01200095ED
:100E5000CDE90104694630460394FFF739FA06B03C
:100E600070BD0000303802400018024010B586B056
:100E700000241148009401940294039404944FF0C8
:100E80008041059401604AF21041C0E9011440F22A
:100E9000CF71C0E90314FFF73DFE4FF4805000907E
:100EA00069460548FFF770FE049404A902480594BA
:100EB000FFF708FE06B010BD10000020FEE77047E7
:100EC0000907090E002806DA00F00F0000F1E02003
:100ED00080F8141D704700F1E02080F8001470477E
:100EE00070477047FFF7EABA30B593B030216846D3
:100EF000FFF7B0F914210CA8FFF7ACF91948002549
:100F0000016841F080510160006800F0805011904C
:100F10001548016841F4404101600068022400F472
:100F20004040119001200090000401908001CDE923
:100F30000640082008904FF4A870CDE90904042069
:100F40000B906846FFF71AFC0CA90F2081E83100CE
:100F50004FF4A0500F90109005210CA8FFF746FB0E
:100F600013B030BD403802400070004010480168A6
:100F700041F4700101600F48016841F00101016016
:100F80000C4A00210832116002680B4B1A400260C3
:100F9000031D0A4A1A60026822F480220260054892
:100FA0000C30016002495806803908607047000023
:100FB00088ED00E000380240FFFFF6FE103000240C
:100FC0000148FFF75BBE000010000020F0B502688A
:100FD000234B244D244E254F254C4FF0804C9842F6
:100FE00009D0604507D0A84205D0B04203D0B8422E
:100FF00001D0A04204D122F0700E4A6842EA0E02EB
:1010000098421BD0604519D0A84217D0B04215D0E5
:10101000B84213D0A04211D0164DA8420ED0164DA2
:10102000A8420BD0154DA84208D0154DA84205D0B6
:10103000144DA84202D0144DA84203D122F44075A9
:10104000CA682A4302608A68C2620A688262984259
:1010500001D0A04201D10969016301214161F0BDC4
:10106000000001400004004000080040000C004067
:10107000000401400040014000440140004801409C
:1010800000180040001C00400020004010B584689B
:1010900042EA032224F47F440A432243826010BDC3
:1010A000826822F070020A4342F0070181607047B3
:1010B00010B5036A046A24F001040462846924F010
:1010C000F00444EA021423F00A020A438461026233
:1010D00010BD10B5036A23F0100303628369046A2C
:1010E00023F4704343EA023224F0A00343EA0111DF
:1010F0008261016210BDFEE702E008C8121F08C14C
:10110000002AFAD170477047002001E001C1121F88
:10111000002AFBD170470000FFF7D8F9FFF7E4FE83
:10112000FFF774FEFFF7A2FE002211461C20FFF716
:101130002BFA1C20FFF71CFA0148FFF719FDFEE708
:101140001000002000000000000000000102030465
:1011500006070809741100080000002010000000B4
:10116000F81000088411000810000020400400005E
:10117000081100080100000010000000000000003D
:041180000024F40053
:04000005080001AD41
:00000001FF
