:020000040800F2
:1000000080050020C10100086B170008DF150008FB
:100010006917000809030008A51D0008000000007A
:100020000000000000000000000000008F17000822
:1000300095030008000000008D17000891170008C4
:10004000DB010008DB010008DB010008DB01000820
:10005000DB010008DB010008DB010008DB01000810
:10006000DB010008DB010008DB010008DB01000800
:10007000DB010008DB010008DB010008DB010008F0
:10008000DB010008DB010008DB010008DB010008E0
:10009000DB010008DB010008DB010008DB010008D0
:1000A000DB010008DB010008DB010008DB010008C0
:1000B0006D1800087918000885180008DB01000891
:1000C000DB010008DB010008DB010008DB010008A0
:1000D000DB010008991D0008DB010008DB010008B6
:1000E000DB010008DB010008DB010008DB01000880
:1000F000DB010008DB010008DB010008DB01000870
:10010000DB010008DB010008DB010008DB0100085F
:10011000DB010008DB010008DB010008DB0100084F
:10012000DB010008DB010008DB010008DB0100083F
:10013000DB010008DB010008DB010008DB0100082F
:10014000DB010008DB010008DB010008DB0100081F
:10015000DB010008DB0100080D030008DB010008DB
:10016000DB010008DB010008DB010008DB010008FF
:10017000DB010008DB010008DB01000800000000D3
:10018000DB010008DB010008DB010008DB010008DF
:10019000DB010008DB010008DB010008DB010008CF
:1001A000DB010008DB010008DB010008DFF80CD0F0
:1001B00000F098F800480047511F00088005002013
:1001C0000648804706480047FEE7FEE7FEE7FEE7F1
:1001D000FEE7FEE7FEE7FEE7FEE7FEE71918000888
:1001E000AD0100082DE9F05F0546002092469B46D0
:1001F00088460646814640241BE02846414647463D
:10020000224600F05EF853465A46C01A914110D378
:1002100011461846224600F045F82D1A67EB0108F2
:100220004F4622460120002100F03CF817EB000960
:100230004E41201EA4F10104DFDC484631462A4627
:100240004346BDE8F09FD2B201E000F8012B491E01
:10025000FBD270470022F6E710B513460A46044663
:100260001946FFF7F0FF204610BD421C10F8011B95
:100270000029FBD1801A704730B50B46014600209B
:100280002022012409E021FA02F59D4205D303FA58
:1002900002F5491B04FA02F52844151EA2F10102D9
:1002A000F1DC30BD202A04DB203A00FA02F1002004
:1002B00070479140C2F1200320FA03F319439040A4
:1002C0007047202A04DB203A21FA02F0002170470F
:1002D00021FA02F3D040C2F12002914008431946AE
:1002E00070470000064C074D06E0E06840F001034F
:1002F00094E8070098471034AC42F6D3FFF75AFF52
:100300004420000864200008FEE70000014800F0D7
:1003100055B800001C01002001681823CAB2103A29
:10032000B2FBF3F2054B6FF30901032A9B5CC36533
:1003300000D9091D81650846704700002420000887
:1003400010B5014600208B698A6A4FF0C07453B122
:10035000B3F5005F15D072B1012A0CD0022A0AD081
:10036000032A09D104E01AB1012A06D0022A03D1D6
:10037000C96AC90100D5012010BDC96AA142FAD0DD
:1003800010BD002AF7D0012AF2D0022AF3D0032AA6
:10039000F3D010BD7047704790F83510022903D094
:1003A0008021416501207047052180F835100068E3
:1003B000016821F001010160002070472DE9F84338
:1003C00004464FF00009CDF8009063484FF41651F1
:1003D000A56D0068B0FBF1F72E6894F85C1008205A
:1003E00000FA01F131420FD021680A6852070BD59B
:1003F0000A6822F004020A6094F85C108840A86041
:10040000606D40F00100606594F85C104FF00108E9
:1004100008FA01F0304208D021684969090604D57C
:10042000A860606D40F00200606594F85C100420E4
:100430008840304208D021680968890704D5A8603F
:10044000606D40F00400606594F85C1010208840F6
:10045000304218D021680968090714D5A8602068BF
:100460000168490304D50068000308D5A16C07E0C2
:100470000168C90503D4016821F008010160216CFD
:1004800009B12046884794F85C102020884030420B
:1004900031D021680968C9062DD5A86094F83500C7
:1004A00005282068016806D0490347D50068000385
:1004B0001DD4616C1CE021F01601016020684169C7
:1004C00021F080014161206C08B9A06C20B1206846
:1004D000016821F00801016094F85C103F20884019
:1004E000A86084F8349084F83580216D1FE0E16BBA
:1004F00009B120468847606D00282BD0606DC00789
:1005000014D0052084F835002068016821F001012D
:1005100001600098401C0090B84203D82068006831
:10052000C007F6D184F8349084F83580E16C002956
:1005300010D001B02046BDE8F04308470168C90566
:10054000D5D4016821F01001016084F8349084F85A
:100550003580CCE7BDE8F883100000202DE9F0419C
:10056000044600F067F906465CB1002584F8345073
:10057000022084F835002068016821F00101016043
:100580000DE00120BDE8F08100F054F9801B052842
:1005900005D920206065032084F83500F2E7206843
:1005A0000068C007F0D12268116820480140D4E9F2
:1005B00001031843D4E903363343184363691843EE
:1005C000A3691843E3691843236A18430843616A1F
:1005D000042903D1D4E90B131943084310602068A0
:1005E0004069666A20F0070130460E43012704285F
:1005F0000CD1A06A0643E06A40B12046FFF7A0FE96
:1006000020B14020606584F83570BAE72068466103
:100610002046FFF781FE94F85C203F2191408160E5
:10062000656584F835700020ACE700003F8010F06D
:1006300070B5044600F0FEF80546601C02D0044880
:100640000078044400F0F6F8401BA042FAD370BDD5
:10065000040000202DE9F84FDFF890B100224FF0A0
:1006600001084FF0030A4FF00F090BF1040E00BF11
:100670000B6808FA02F42340A3426ED14D68022DA4
:1006800001D0122D0ED1D50800EB850CDCF82050DE
:100690005607F70E09FA07F6B5430E69BE402E431A
:1006A000CCF82060066855000F790AFA05FC07F0BF
:1006B000030726EA0C06AF40374307604E68012E59
:1006C00005D0022E03D0112E01D0122E0ED1876834
:1006D000CE6827EA0C07AE403E4386604668A643D4
:1006E0000C79C4F30014944034434460C4688E68A9
:1006F00024EA0C04AE402643C6604C68E4006FD583
:100700003B4C256845F480452560246822F00305AC
:1007100004F480440094374C2E19D6F80848950705
:100720002F0F09FA07F5AC43334DA84201D100253C
:100730002EE0324DA84201D1012529E0304DA842DA
:1007400001D1022524E02F4DA84201D103251FE04D
:100750002D4DA84202D104251AE041E02B4DA842BC
:1007600001D1052514E02A4DA84201D106250FE04C
:10077000284DA84201D107250AE0274DA84201D102
:10078000082505E0254DA84201D1092500E00A25EC
:10079000BD402543C6F80858DBF800405D464E686A
:1007A0009C43F60300D51C432C60DEF800407546E0
:1007B0004E689C43B60300D51C432C600B4D083596
:1007C0002C684E689C43F60200D51C432C60074DF4
:1007D0000C352C684E689C43B60200D51C432C6037
:1007E000521C102AFFF444AFBDE8F88F003C0140D2
:1007F0004438024000300140000002400004024042
:1008000000080240000C02400010024000140240A8
:1008100000180240001C0240002002400024024058
:1008200042694A40426170470AB1816170470904D8
:10083000FBE70000014880687047000004000020CA
:1008400002488168027811448160704704000020EA
:100850000B4810B5016841F400710160016841F472
:1008600080610160016841F480710160032000F043
:100870006DF8002000F006F800F024F8002010BD0C
:10088000003C024070B50D4D04464FF47A71287853
:10089000B1FBF0F00A490968B1FBF0F000F0DEFAB4
:1008A00048B9102C07D200222146501E00F02EF825
:1008B00000206C6070BD012070BD000004000020AD
:1008C000100000200A4808B5016841F48041016029
:1008D000006800F4804000900548001F016841F066
:1008E00080510160006800F08050009008BD000059
:1008F0004438024000F01F0201219140400980006D
:1009000000F1E020C0F8001170470000F0B40E4B79
:100910001B680C46C3F30223C3F10705042D00D95D
:100920000425191D072901D2002300E0DB1E012642
:1009300006FA05F1491E214099409E40761E164058
:100940003143F0BC00F012BF0CED00E0064900F0AE
:10095000070208684FF6FF03184040EA0220034AE6
:1009600010430860704700000CED00E00000FA053D
:100970002DE9F0470E46050065D0DFF81481D8F860
:100980000000F7B200F00F00B04207D288F8007004
:10099000D8F8000000F00F00B04254D128683D4C58
:1009A000810712D5400703D5206840F4E05020604D
:1009B0002878000703D5206840F460402060206854
:1009C000A96820F0F000084320602878C0072DD0E7
:1009D000304968680839012812D0022813D003284A
:1009E00011D00968890700292DDA216821F0030157
:1009F00001432160FFF71EFF814641F2883A0EE075
:100A000009688903EFE709688901ECE7FFF712FF3E
:100A1000A0EB0901514502D90320BDE8F087206809
:100A2000696800F00C00B0EB810FEFD1D8F800102E
:100A3000404601F00F01B14207D90770006800F08D
:100A40000F00B04201D00120E7E72878400705D524
:100A50002068E96820F4E050084320602878000707
:100A600006D52068296920F4604040EAC100206072
:100A700000F036F82168084AC1F30311515CC84000
:100A8000064908600020FFF7FDFE0020C5E70000D2
:100A9000003C0240083802402C20000810000020D2
:100AA0000448054900680968044AC1F38221515C81
:100AB000C840704710000020083802403C20000861
:100AC0000448054900680968044AC1F34231515C91
:100AD000C840704710000020083802403C20000841
:100AE000154810B5006810F00C02144813D04110DE
:100AF000042A0FD0082A0ED10F4C241F2268236825
:100B000002F03F025B0207D52068C0F38810A0FB0B
:100B1000010106E0084610BD2168C1F38811A1FB60
:100B200000010023FFF75EFB2168C1F30141491C6E
:100B30004900B0FBF1F010BD083802400024F40079
:100B40002DE9F84F050076D02878DFF8F8B2BE4CD2
:100B5000C00749D0DBF800105846C1F381010129D4
:100B600008D00068C0F3810002280AD1201D006867
:100B7000400206D52068800336D568680028E2D098
:100B800032E06868B0F5803F10D0B0F5A02F206843
:100B900010D020F480302060206820F48020206075
:100BA0006868A0B1FFF746FE06460CE0206840F4F6
:100BB0008030F4E740F480202060F7E7FFF73AFE4A
:100BC000801B642873D820688003F7D50CE0FFF7FA
:100BD00031FE064605E000BFFFF72CFE801B6428AF
:100BE000F0D820688003F7D42878DFF86082800787
:100BF0004FF000093ED5DBF80010584611F00C0FFD
:100C000009D00068C0F3810002280BD18D48001F75
:100C10000068400206D42068800715D5E8680128DE
:100C200009D111E0E868B8B10120C8F80000FFF769
:100C300001FE064605E002E1FFF7FCFD801B0228ED
:100C4000C0D820688007F7D52068296920F0F8000F
:100C500040EAC10020600DE0C8F80090FFF7EAFD0F
:100C6000064604E0FFF7E6FD801B02281FD8206837
:100C70008007F7D42878000722D5724E7448696936
:100C80006C3671B101210160FFF7D4FD074604E025
:100C9000FFF7D0FDC01B022809D830688007F7D5C0
:100CA0000EE0C0F80090FFF7C5FD074605E083E0C1
:100CB000FFF7C0FDC01B02287ED830688007F7D43C
:100CC0002878400768D5DFF87CA100270AF1380AA8
:100CD000DAF80000C0000BD4DAF8001041F08051BF
:100CE000CAF80010DAF80000012700F080500090E8
:100CF000584E3068C00510D4306840F480703060C1
:100D0000FFF798FD009005E0FFF794FD0099401A69
:100D1000022851D83068C005F6D54A4EA868683612
:100D200001280FD00528306810D020F00100306075
:100D3000306820F004003060A868B8B1FFF77AFD91
:100D400000900FE0306840F00100F4E740F004004C
:100D50003060F7E7FFF76EFD0099411A41F28830E5
:100D6000814264D830688007F4D50EE0FFF762FD59
:100D7000009007E0FFF75EFD0099411A41F28830CC
:100D8000814254D830688007F4D42FB1DAF80010CB
:100D900021F08051CAF80010A869C0B3DBF8001038
:100DA000C1F3810102294AD00228484607D0C8F879
:100DB0006000FFF73FFD00E039E005463AE04746B6
:100DC000C8F86000FFF736FD064604E0FFF732FD85
:100DD000801B02282BD820688001F7D4D5E90701B1
:100DE0000843A96A1C4A490802EB01416A6A41EAC0
:100DF0008211084395F82C1040EA01611148001F48
:100E0000016001203866FFF715FD054605E014E096
:100E1000FFF710FD401B022809D820688001F7D594
:100E20000BE000BFFFF706FD401B022802D903209C
:100E3000BDE8F88F20688001F4D40020F8E7012095
:100E4000F6E7000008380240003802400000474240
:100E5000800E4742007000400000FFFF10B5401EAA
:100E6000B0F1807F01D3012010BD4FF0E02460611C
:100E70000F21601700F07AFC0020A061072020619C
:100E8000002010BD7047704730B590F83820012A17
:100E900020D0012280F83820022380F839300368FE
:100EA0005C6824F070045C6003685C680D682C4327
:100EB0005C6003689C6824F080049C6003689C6804
:100EC00049680C439C6080F83920002180F8381074
:100ED000084630BD022030BD10B5040003D094F8A0
:100EE000390010B107E0012010BD002084F838005F
:100EF000204600F00DF8022084F83900211D2068FA
:100F000000F0C6FC012084F83900002010BD00006C
:100F100008B50068B0F1804F12D10A48016841F06D
:100F2000010101600068002200F0010000901146FC
:100F30001C20FFF7EBFCBDE808401C20FFF7DABCE3
:100F400008BD0000403802400168CA6842F0010252
:100F5000CA600068016841F001010160002070472B
:100F600070B5044690F83800012817D0012584F8A0
:100F70003850022084F839002068826822F0770215
:100F800022F47F4282600868502837D00DDC202888
:100F900059D005DC88B3102841D151E0022070BD42
:100FA000302853D040283AD13FE060282ED0702816
:100FB0000BD0B0F5805F03D0B0F5005F2FD110E00B
:100FC0002068816821F0070115E0CB68D1E9012193
:100FD000206800F0C8FC2168886840F077008860CD
:100FE0001DE0CB68D1E90121206800F0BCFC20683D
:100FF000816841F48041816011E01EE0CA6849685F
:10100000206800F0C2FC5021206806E0CA684968E8
:10101000206800F0CBFC6021206800F0AEFC84F872
:101020003950002084F8380070BDCA6849682068CB
:1010300000F0ABFC40212068EFE700212068ECE7DE
:1010400010212068E9E720212068E6E730212068A8
:10105000E3E72DE9F0410D46040003D094F8390090
:1010600018B108E00120BDE8F081002084F83800C4
:10107000204600F039F8022084F8390020688168A1
:1010800021F007018160211D206800F001FC226829
:1010900090689169166A2B68AF69034340F2033088
:1010A000814341EA0721A868EF6908434FF6FC41F4
:1010B0008843E96840EA0720014328692F6A000154
:1010C00040EA0730084369686D6926F0AA0646EAD7
:1010D0000515294393602268906120680162012010
:1010E00084F839000020BEE770B586B004461421AC
:1010F0006846FFF7AFF82948274E2568002327499F
:101100001038C0240222B5421FD10D6845F00205F7
:101110000D60096801F002010591016841F00101CB
:10112000016000680094CDE9012300F00100CDE9E1
:101130000420694603931A48FFF78CFA00221146EF
:101140001D20FFF7E3FB1D2022E0164B9D4221D11D
:101150000B6843F004030B60096801F0040105917A
:10116000016841F0020101600068009400F0020093
:1011700005900120CDE90120039269460A480492B6
:10118000FFF768FA002211461E20FFF7BFFB1E2062
:10119000FFF7B0FB06B070BD0004004040380240CD
:1011A00000000240000800400004024010B5044660
:1011B000006891B1042904D00122002100F0C8FB8D
:1011C000206801225FF0040100F0C2FB2068016882
:1011D00041F001010160002010BD01220021F3E770
:1011E000704770B50446006801694FF00005C943B7
:1011F000890715D4C168C943890711D4E91E016163
:1012000001202076206880698007204602D0FFF701
:10121000E7FF04E000F098F8204600F096F8257605
:1012200020680169C943490717D4C168C943490700
:1012300013D46FF0040101610220207620688069D8
:1012400010F4407F204602D0FFF7CAFF04E000F010
:101250007BF8204600F079F8257620680169C943BB
:10126000090716D4C168C943090712D46FF00801F1
:101270000161042020762068C0698007204602D0E2
:10128000FFF7AEFF04E000F05FF8204600F05DF8E5
:10129000257620680169C943C90617D4C168C943C6
:1012A000C90613D46FF01001016108202076206870
:1012B000C06910F4407F204602D0FFF791FF04E0A0
:1012C00000F042F8204600F040F8257620680169D9
:1012D000C943C90708D1C168C943C90704D1891ED8
:1012E0000161204600F032F820680169C94309060F
:1012F00009D4C168C943090605D46FF080010161B2
:101300002046FFF7BFFD20680169C943490609D49B
:10131000C168C943490605D46FF040010161204608
:1013200000F024F820680169C94389060BD4C1681C
:10133000C943890607D46FF0200101612046BDE84A
:101340007040FFF7A0BD70BD704770470549006849
:101350000968884204D14FF400510348FFF760BA8E
:1013600070470000140000200018024070477047CA
:1013700070B5026804461068D168536910F00F0F09
:1013800050D003F0010501F4907635435DD0C207DB
:1013900005D0CA0503D5E26B42F00102E2634207C1
:1013A00005D5DA0703D0E26B42F00202E26382075E
:1013B00005D5DA0703D0E26B42F00402E2630207CC
:1013C00005D5DA0703D0E26B42F00802E263E26B74
:1013D000002A33D0800604D5880602D5204600F0C6
:1013E0000DFB20684069E16BC0F38010090700D451
:1013F00028B3204600F0F4FA2068416949061AD55E
:10140000416921F040014161606BA0B11B49016558
:10141000606BFEF7C1FF002810D0606B016DBDE866
:1014200070400847830610D58B060ED52046BDE8D0
:10143000704000F0E3BA2046FFF799FF70BD2046E8
:10144000FFF795FF0020E06370BD030606D50B068D
:1014500004D52046BDE8704000F06CBC4006F3D5D2
:101460004806F1D5D168204621F04001D160202105
:1014700084F8391000F0B2F870BD0000D1190008EE
:1014800070B5040004D094F83900002510B106E0CE
:10149000012070BD84F83850204600F023F8242045
:1014A00084F839002068C16821F40051C1602046E9
:1014B00000F0EAFA2068016921F490410161206896
:1014C000416921F02A0141612068C16841F400515D
:1014D000C160E563202084F8390084F83A000020D8
:1014E00070BD000070B586B0064614216846FEF750
:1014F000B1FE25493068884243D12448002501685F
:1015000041F010010160006800F0100005901F48D4
:101510001438016841F0010101600068694600F07B
:10152000010005904FF4C06000900220019001205E
:10153000029003200390072004901548FFF78AF8D3
:10154000154C144820604FF0006060604020C4E9F2
:1015500002050001C4E90405C001A561C4E9075002
:1015600020466562FEF7FAFF08B1FEF714FF346308
:10157000002211462520A663FFF7C8F92520FFF7B2
:10158000B9F906B070BD00000010014044380240B7
:1015900000000240B86402401C010020704790F82F
:1015A0003930202B18D1A9B1A2B190F83830012BD5
:1015B00012D001628284C2840021C163212280F89A
:1015C000392080F838100068C16841F08001C1609E
:1015D0000020704701207047022070477047FEE7E7
:1015E00070B586B014216846FEF734FE1A4800250F
:1015F000016841F080010160016801F080010591FE
:10160000016841F001010160016801F001010591EB
:10161000016841F040010160016801F0400105915D
:10162000016841F00201016000680C4E00F0020008
:101630004FF400540590002221463046FFF7F4F89D
:101640000120CDE900400220CDE902506946304634
:10165000FFF700F806B070BD3038024000180240B5
:1016600010B586B0002411480094019402940394AC
:1016700004944FF08041059401604AF21041C0E9A2
:10168000011440F2CF71C0E90314FFF725FC4FF4B9
:101690008050009069460548FFF762FC049404A955
:1016A00002480594FFF7F0FB06B010BD14000020BF
:1016B00010B58CB024216846FEF7CCFD00241248FA
:1016C000099410490A94C0E900144FF6FF71C0E96B
:1016D000024104610320CDE900040120CDE90204A8
:1016E0000F210491CDE90540CDE90741694606483F
:1016F000FFF7AFFC099409A903480A94FFF7C4FB5C
:101700000CB010BD000400405000002010B58CB09B
:1017100024216846FEF79EFD0024124809941049D2
:101720000A94C0E900144FF6FF71C0E90241046158
:101730000320CDE9000401200F21CDE9020404912A
:10174000CDE905400794694606480894FFF781FCF7
:10175000099409A903480A94FFF796FB0CB010BD41
:10176000000800408C000020FEE770470907090EC2
:10177000002806DA00F00F0000F1E02080F8141DC8
:10178000704700F1E02080F8001470477047704700
:10179000FFF756B830B593B030216846FEF75AFDD2
:1017A00014210CA8FEF756FD19480025016841F0E8
:1017B00080510160006800F0805011901548016868
:1017C00041F4404101600068022400F4404011905F
:1017D00001200090000401908001CDE9064008201E
:1017E00008904FF4A870CDE9090404200B906846D6
:1017F000FFF7A6F90CA90F2081E831004FF4A050A3
:101800000F90109005210CA8FFF7B2F813B030BD6F
:1018100040380240007000401048016841F47001F7
:1018200001600F48016841F0010101600C4A00218C
:101830000832116002680B4B1A400260031D0A4A0D
:101840001A60026822F48022026005480C300160B0
:1018500002495806803908607047000088ED00E0B2
:1018600000380240FFFFF6FE103000240148FFF769
:10187000B8BC0000140000200148FFF7B2BC000013
:10188000500000200148FFF7ACBC00008C00002095
:10189000F0B50268234B244D244E254F254C4FF0C4
:1018A000804C984209D0604507D0A84205D0B0428C
:1018B00003D0B84201D0A04204D122F0700E4A6891
:1018C00042EA0E0298421BD0604519D0A84217D0B8
:1018D000B04215D0B84213D0A04211D0164DA84244
:1018E0000ED0164DA8420BD0154DA84208D0154D6C
:1018F000A84205D0144DA84202D0144DA84203D1ED
:1019000022F44075CA682A4302608A68C2620A6883
:101910008262984201D0A04201D10969016301218C
:101920004161F0BD0000014000040040000800409B
:10193000000C004000040140004001400044014010
:101940000048014000180040001C004000200040FA
:1019500010B50123046A8B409C430462036A8A40E9
:101960001343036210BD10B5846842EA032224F4D5
:101970007F440A432243826010BD826822F07002D5
:101980000A4342F007018160704710B5036A046A98
:1019900024F001040462846924F0F00444EA02148F
:1019A00023F00A020A438461026210BD10B5036A83
:1019B00023F0100303628369046A23F4704343EA4B
:1019C000023224F0A00343EA01118261016210BDDA
:1019D00010B5806B0021C185C184FFF7C8FC10BD24
:1019E0000168CA6822F49072CA6001684A6922F0EC
:1019F00001024A61202180F83A10704710B590F832
:101A00003A10222901D0022010BD8168B1F5805F13
:101A100011D00169002901681FD0496801F07F03D6
:101A2000816A4A1C82620B70C18D491E0904090C2F
:101A3000C18518D026E00269816A002A02685268CE
:101A400005D0D2B20A80816A491C8162ECE7C2F3F8
:101A500008020A80816A891CF7E74A68816A4B1C80
:101A600083620A70E0E70168CA6822F49072CA6073
:101A700001684A6922F001024A61202180F83A1087
:101A8000FFF78CFD002010BD2DE9F04104460068F1
:101A9000016921F44052E168114301612168C8687D
:101AA00049F20C6290432369A268E5691A436369AD
:101AB0002B431A430243CA602168486920F44072EC
:101AC000A06910434861E1696425B1F5004F97486A
:101AD000974A21684FF032083FD0914201D08142AD
:101AE0007CD1FEF7EDFF00EBC00101EB0010616857
:101AF0008900B0FBF1F6FEF7E3FF00EBC00101EB5C
:101B0000001061688900B0FBF1F0B0FBF5F06FF0F8
:101B10001801484306EB800108EB0110B0FBF5F01B
:101B200000F0F006FEF7CCFF00EBC00101EB001067
:101B300061688900B0FBF1F0B0FBF5F006EB001630
:101B4000FEF7BEFF00EBC00101EB001061688900E9
:101B5000B0FBF1F7FEF7B4FFD2E0914201D0814231
:101B60003DD1FEF7ADFF00EBC00101EB0010616855
:101B70004900B0FBF1F0B0FBF5F00601FEF7A0FF65
:101B800000EBC00101EB001061684900B0FBF1F708
:101B9000FEF796FF00EBC00101EB00106168490001
:101BA000B0FBF1F0B0FBF5F06FF01801484307EB24
:101BB000800108EBC100B0FBF5F000F0F80006EB87
:101BC0004006FEF77DFF00EBC00101EB00106168ED
:101BD0004900B0FBF1F7FEF773FF3CE055E0FEF77C
:101BE0005FFF00EBC00101EB001061684900B0FB32
:101BF000F1F0B0FBF5F00601FEF752FF00EBC0017B
:101C000001EB001061684900B0FBF1F7FEF748FFF7
:101C100000EBC00101EB001061684900B0FBF1F07E
:101C2000B0FBF5F06FF01801484307EB800108EBBB
:101C3000C100B0FBF5F000F0F80006EB4006FEF73F
:101C40002FFF00EBC00101EB001061684900B0FB01
:101C5000F1F7FEF725FF00EBC00101EB0010616812
:101C60004900B0FBF1F0B0FBF5F06FF0180148430C
:101C700007EB800108EBC100B0FBF5F000F00700B6
:101C8000216830448860BDE8F081FEF709FF00EB71
:101C9000C00101EB001061688900B0FBF1F6FEF7AE
:101CA000FFFE00EBC00101EB001061688900B0FB92
:101CB000F1F0B0FBF5F06FF01801484306EB80013E
:101CC00008EB0110B0FBF5F000F0F006FEF7E8FEBF
:101CD00000EBC00101EB001061688900B0FBF1F07E
:101CE000B0FBF5F006EB0016FEF7DAFE00EBC001E4
:101CF00001EB001061688900B0FBF1F7FEF7D0FE40
:101D000000EBC00101EB001061688900B0FBF1F04D
:101D1000B0FBF5F06FF01801484307EB800108EBCA
:101D20000110B0FBF5F000F00F00A9E7001401402E
:101D30000010014090F83910212901D0022070478D
:101D40008168B1F5805F016A0BD04A1C02620268AB
:101D500009785160C18C491E0904090CC1840ED058
:101D600017E009880268C1F3080151600169002980
:101D7000016A02D0491C0162ECE7891CFBE701689B
:101D8000CA6822F08002CA600068C16841F0400160
:101D9000C1600020704700000148FFF7E9BA000069
:101DA000C8000020FEE700000FB4084B10B504A9DE
:101DB00002AA039800F01CF8044602A9002000F0D3
:101DC000C1F8204610BC5DF814FB0000451F000858
:101DD00002E008C8121F08C1002AFAD170477047F4
:101DE000002001E001C1121F002AFBD17047000052
:101DF0002DE9FF4F89B09B460446002506E02528C3
:101E00000BD05A460B999047641C6D1C2078002813
:101E1000F5D10DB02846BDE8F08F0027B846012265
:101E2000474900E0074314F8013F203B02FA03F062
:101E30000842F7D120782E2819D114F8010F47F065
:101E400004072A280ED06FF02F022078A0F130016D
:101E500009290CD808EB880102EB410100EB0108CD
:101E6000641CF2E70A98641C50F8048B0A902078EE
:101E70000028CED0642808D0692806D075281ED046
:101E80005A460B9990476D1C58E00A994FF00A0981
:101E900001C90A91002802DA40422D2102E03905E9
:101EA00004D52B218DF82010012103E0F90704D07F
:101EB0002021F7E78A4608AE0DE00021FAE70A99EB
:101EC0004FF00A0901C90A91F7E74946FEF7D4F92C
:101ED000303106F8011D0028F7D1ADEB060000F106
:101EE0002009780701D44FF00108C84502DDA8EBAE
:101EF000090000E000208046002706E008A85A46B6
:101F0000C05D0B9990476D1C7F1C5745F6DB04E0C4
:101F100030205A460B9990476D1CB8F10001A8F18A
:101F20000108F5DC05E016F8010B5A460B999047BD
:101F30006D1CB9F10001A9F10109F4DC641C65E72D
:101F4000092801000A68531C0B60107070470000DC
:101F500008B5FEF77DFCFFF71DFCFFF741FB2A48A3
:101F60000024016841F4800101600068224600F409
:101F70008000009021464620FEF7C8FC4620FEF770
:101F8000B9FCFFF795FBFFF7C1FB21481F49016032
:101F90004FF4E131C0E901140C21C460C0E90441EF
:101FA0008461C461FFF76CFAFFF75AFB18481821E7
:101FB0007838FFF7FBF8164818213C38FFF7F6F899
:101FC000002211461C20FEF7A1FC1C20FEF792FC0B
:101FD0000F48B438FEF7B8FF0E4D0F4C2A680C4876
:101FE0000EA140302260FFF7DFFE09484030FEF7C7
:101FF0003CF9074982B240310548FFF7D0FAC820C2
:10200000FEF716FBEAE700003038024000100140FE
:10201000C8000020240800400000002025640D0AAC
:102020000000000000061016000610160000000058
:102030000000000001020304060708090000000078
:1020400001020304642000080000002014000000C6
:10205000D01D000878200008140000206C05000046
:10206000E01D00080000000001000000100000005A
:08207000000000000024F40050
:04000005080001AD41
:00000001FF
